:020000040800F2
:10000000002800203D110008CD100008D310000882
:10001000D9100008DF100008E510000800000000FB
:10002000000000000000000000000000EB100008CD
:10003000F710000800000000031100080F1100086D
:100040008511000885110008851100088511000838
:100050008511000885110008851100088511000828
:100060008511000885110008851100088511000818
:100070008511000885110008851100088511000808
:1000800085110008851100088511000885110008F8
:1000900085110008851100088511000885110008E8
:1000A00085110008851100088511000885110008D8
:1000B0001D110008851100080000000085110008CE
:1000C00085110008000000000000000085110008F4
:1000D00000000000851100088511000800000000E4
:1000E0008511000885110008851100080000000036
:1000F0000000000000000000000000000000000000
:0C01000000000000000000005FF808F1A3
:10010C0010B5054C237833B9044B13B10448AFF345
:10011C0000800123237010BD20000020000000008F
:10012C00E027000808B5034B1BB103490348AFF3A4
:10013C00008008BD0000000024000020E02700081B
:10014C0080B483B000AF7860174A7B68002142F816
:10015C002310164A7B68002142F82310144A7B684E
:10016C00002142F82310134A7B681B01134401221F
:10017C001A60104A7B681B011344043301221A6075
:10018C000C4A7B681B011344083301221A60094A8C
:10019C007B681B0113440C3301221A6000BF0C371F
:1001AC00BD4680BC704700BF84000020900000203A
:1001BC00780000204800002080B483B000AF786045
:1001CC00044A7B68012142F8231000BF0C37BD465E
:1001DC0080BC70478400002080B483B000AF78608E
:1001EC00044A7B68012142F8231000BF0C37BD463E
:1001FC0080BC70479000002080B483B000AF786062
:10020C00074A7B68002142F82310064A7B680021CC
:10021C0042F8231000BF0C37BD4680BC704700BFAE
:10022C00780000209000002080B582B000AF78608C
:10023C00754A7B681B01134404331A6872497B6846
:10024C001B010B441A60704A7B681B011344083372
:10025C001A686D497B681B010B4404331A606B4AA6
:10026C007B6832F813301946694801F073FA03467B
:10027C001946654A7B681B01134408331960624AAE
:10028C007B681B0113441A685F497B681B010B4494
:10029C0004331B689A4240F0B2805B4A7B681B01B6
:1002AC00134404331A6858497B681B010B44083308
:1002BC001B689A4240F0A380534A7B681B0113448D
:1002CC000C331B68012B19D14F4A7B681B0113445B
:1002DC0004331B68002B11D14B4A7B681B01134460
:1002EC0008331A6848497B681B010B440C331A60AD
:1002FC00484A7B68022142F8231080E0424A7B681E
:10030C001B0113440C331B68002B2CD13E4A7B6819
:10031C001B01134404331B68012B24D13A4A7B681C
:10032C001B01134408331A6837497B681B010B44C3
:10033C000C331A60374A7B6852F82330B3F5967F3A
:10034C0008DA7868FFF738FF324A7B68002142F8F8
:10035C00231054E07868FFF74FFF2E4A7B6800218A
:10036C0042F823104BE0284A7B681B0113440C33E2
:10037C001B68002B27D1244A7B681B0113440433D0
:10038C001B68002B1FD1204A7B681B0113440833C8
:10039C001A681D497B681B010B440C331A601D4AFB
:1003AC007B6852F823305A1C1A497B6841F8232089
:1003BC00184A7B6852F82330B3F5967F1FDB7868B8
:1003CC00FFF70AFF1BE0104A7B681B01134408333C
:1003DC001A680D497B681B010B440C331A600D4ADB
:1003EC007B68002142F823100B4A7B68002142F8FD
:1003FC0023100A4A7B68002142F82310FFE700BF54
:10040C000837BD4680BD00BF480000200C0000200E
:10041C00000801407800002090000020840000209B
:10042C0080B483B000AF7860396001227B6893FBA5
:10043C00F2F207493B6841F82320064A3B68002149
:10044C0042F8231000BF0C37BD4680BC704700BF7C
:10045C00AC0000209C00002080B483B000AF78601A
:10046C000F4A7B6852F82330002B13DD0C4A7B6853
:10047C0052F823305A1E0A497B6841F82320084A57
:10048C007B6852F82330002B04D1064A7B6801218B
:10049C0042F8231000BF0C37BD4680BC704700BF2C
:1004AC00AC0000209C00002080B500AF00F066FE80
:1004BC0000F009F800F08EF800F040F800F0ECF8CD
:1004CC0000F09AF9FCE780B590B000AF07F1180383
:1004DC0028220021184602F075F93B1D00221A60F3
:1004EC005A609A60DA601A610223BB610123BB6215
:1004FC001023FB6200237B6307F11803184601F0FD
:10050C0071F90346002B01D000F08EFD0F237B60A8
:10051C000023BB600023FB6000233B6100237B6155
:10052C003B1D0021184601F0DFFB0346002B01D0D8
:10053C0000F07AFD00BF4037BD4680BD80B586B067
:10054C0000AF07F1080300221A605A609A60DA6063
:10055C003B4600221A605A601D4B4FF080421A60D5
:10056C001B4B41F63F725A60194B00229A60184B94
:10057C000922DA60164B00221A61154B00229A618F
:10058C00134801F017FD0346002B01D000F04CFD81
:10059C004FF48053BB6007F1080319460C4801F077
:1005AC00ADFE0346002B01D000F03EFD00233B6066
:1005BC0000237B603B461946054802F075F803465C
:1005CC00002B01D000F030FD00BF1837BD4680BDB8
:1005DC00C400002080B586B000AF07F108030022EC
:1005EC001A605A609A60DA60284B9B69274A43F07C
:1005FC0004039361254B9B6903F004037B607B68C8
:10060C00224B9B69214A43F0080393611F4B9B6962
:10061C0003F008033B603B68002241F6F0611C4884
:10062C0001F0AFF800224EF2E7111A4801F0A9F8D8
:10063C000E23BB600023FB6001233B6107F1080321
:10064C001946134800F00AFF41F6F063BB60012322
:10065C00FB6000233B6102237B6107F10803194611
:10066C000B4800F0FBFE4EF2E713BB600123FB606E
:10067C0000233B6102237B6107F1080319460548FF
:10068C0000F0ECFE00BF1837BD4680BD00100240E4
:10069C0000080140000C014080B500AF1F4B002248
:1006AC001A601F4B1B681F4A82FB03125211DB1787
:1006BC00D31A1D4A13601D4B1B681A4A82FB031286
:1006CC005211DB17D31A1A4A13601A4B01221A6003
:1006DC00184B01225A60174B00229A60154B0122CD
:1006EC00DA6002216420FFF79BFE03211920FFF73B
:1006FC0097FE114B00221A60104801F0ABFC104B16
:10070C0000221A600020FFF71BFD0120FFF718FDE7
:10071C000220FFF715FD00BF80BD00BF4400002084
:10072C00080000201F85EB51BC00002000000020B9
:10073C00C00000209C00002040000020C4000020CD
:10074C003C00002080B582B000AF78600020FFF73D
:10075C0083FE0120FFF780FE0220FFF77DFE0320C1
:10076C00FFF77AFE0020FFF75FFD0120FFF75CFD2D
:10077C000220FFF759FD00BF0837BD4680BD0000C1
:10078C0080B500AF0122F021044800F0FAFF0122ED
:10079C000321034800F0F5FF00BF80BD00080140B5
:1007AC00000C014080B500AF114B1B68002B11D021
:1007BC00FFF7E6FF0F4B1B6801330E4A13600D4B1E
:1007CC001B68032B02DD0B4B00221A60084B002226
:1007DC001A600BE0064B9B68002B07D0054B0022E0
:1007EC001A60034B00229A60FFF756FF00BF80BDD2
:1007FC00840000203C00002080B500AF554B1B68E6
:10080C00032B00F29E8001A252F823F02908000865
:10081C003B08000897080008F308000800F0CEFA1F
:10082C0000F0C4F800F0A6F8FFF7BCFF90E0FFF76B
:10083C00B9FF484B1B68184600F0ACF9464B5B6897
:10084C00002B07D0454B1B686433444A1360424B62
:10085C0000225A60424BDB68002B74D010214148B7
:10086C0000F0A7FF80213F4800F0A3FF0122602188
:10087C003C4800F086FF012203213B4800F081FF39
:10088C0003211920FFF7CCFD5DE0FFF78BFF314B07
:10089C001B68184600F07EF92F4B5B68002B07D0C5
:1008AC00324B1B686433314A13602B4B00225A6065
:1008BC002B4BDB68002B48D040212A4800F079FFF5
:1008CC000221294800F075FF0122B021254800F0D3
:1008DC0058FF01220121244800F053FF0321192065
:1008EC00FFF79EFD31E0FFF75DFF1A4B1B681846C2
:1008FC0000F050F9184B5B68002B07D01C4B1B68A1
:10090C0064331B4A1360144B00225A60144BDB688F
:10091C00002B1CD02021134800F04BFF0121124862
:10092C0000F047FF0122D0210E4800F02AFF0122DF
:10093C0002210D4800F025FF03211920FFF770FD5F
:10094C0005E000BF04E000BF02E000BF00E000BF14
:10095C0000BF80BD3C00002084000020000000206F
:10096C009C00002000080140000C01400400002005
:10097C000800002080B500AF094B9B68002B0DD000
:10098C00084B1B68013B074A1360074B1B68013B74
:10099C00054A136002216420FFF742FD00BF80BDB1
:1009AC009C000020BC000020C000002080B500AFDF
:1009BC006E4B5B68002B00F0D5806D4B1B68032BD6
:1009CC0000F2CC8001A252F823F000BFE909000824
:1009DC004F0A0008A10A0008110B00080022A021F0
:1009EC00644800F0CEFE01225021624800F0C9FE9E
:1009FC0001220321604800F0C4FE604B1B68604A72
:100A0C0082FB03125211DB17D31A5E4A13605E4B42
:100A1C001B685B4A82FB03125211DB17D31A5B4A29
:100A2C00136002216420FFF7FBFC544B1B6801216F
:100A3C001846FFF7F5FC4E4B1B6801334C4A13600C
:100A4C0091E00022C0214B4800F09BFE0122302196
:100A5C00484800F096FE01220321474800F091FE21
:100A6C004B4B1B68464A82FB03125211DB17D31AFD
:100A7C00444A136002216420FFF7D2FC444B1B68EC
:100A8C0001211846FFF7CCFC394B1B680133384A5F
:100A9C00136068E000221021364800F072FE00223C
:100AAC000121354800F06DFE01226021314800F033
:100ABC0068FE012282212F4800F063FE324B1B6836
:100ACC002F4A82FB03125211DB17D31A2D4A1360E3
:100ADC002A4B1B682A4A82FB03125211DB17D31ACA
:100AEC002A4A1360254B1B6801211846FFF798FC16
:100AFC0002216420FFF794FC1D4B1B6801331C4A38
:100B0C00136030E0002210211A4800F03AFE002257
:100B1C000221194800F035FE0122E021154800F0B1
:100B2C0030FE01220121144800F02BFE022164202A
:100B3C00FFF776FC164B1B6801211846FFF770FC7B
:100B4C00134B1B680E4A82FB03125211DB17D31A8C
:100B5C000E4A1360064B00221A6004E0044B00227C
:100B6C001A6000E000BF00BF80BD00BF9C000020E9
:100B7C004400002000080140000C01400800002047
:100B8C001F85EB51BC00002000000020C00000209D
:100B9C000400002080B582B000AF78607E4B1B68EB
:100BAC00002B00F0F5807D4B1B68032B00F2E880D6
:100BBC0001A252F823F000BFD50B0008090C000865
:100BCC00470C0008CB0C000800220421744800F0EC
:100BDC00D8FD0122E021724800F0D3FD7B68714AF8
:100BEC0082FB03129210DB17D31A184600F086F919
:100BFC006A4B1B680133694A1360C5E000228021EF
:100C0C00674800F0BEFD01226421654800F0B9FD83
:100C1C007A68644B83FB02139910D317C91A0B46DD
:100C2C009B000B445B00D11A084600F067F95B4B44
:100C3C001B680133594A1360A6E000224021584832
:100C4C0000F09FFD0122A421554800F09AFD7B681D
:100C5C00032B21D07B68032B2ADC7B68012B03D070
:100C6C007B68022B0CD023E04F4B1B684F4A82FB56
:100C7C0003129211DB17D31A184600F03FF918E053
:100C8C004B4B1B68494A82FB03129211DB17D31A98
:100C9C00184600F033F90CE0464B1B68434A82FBC4
:100CAC0003129211DB17D31A184600F027F900E053
:100CBC0000BF3A4B1B680133384A136064E00022D2
:100CCC002021374800F05DFD0122C421344800F09A
:100CDC0058FD7B68032B37D07B68032B4BDC7B6880
:100CEC00012B03D07B68022B17D044E02E4B1B68E2
:100CFC00314A82FB03125211DB17D21A294B83FBA8
:100D0C0002139910D317C91A0B469B000B445B00B6
:100D1C00D11A084600F0F2F82EE0254B1B68264A43
:100D2C0082FB03125211DB17D21A1E4B83FB0213E8
:100D3C009910D317C91A0B469B000B445B00D11AB0
:100D4C00084600F0DBF817E01A4B1B681A4A82FBC6
:100D5C0003125211DB17D21A124B83FB0213991098
:100D6C00D317C91A0B469B000B445B00D11A0846DB
:100D7C0000F0C4F800E000BF084B00221A6003E04A
:100D8C00064B00221A6000BF00211920FFF748FB18
:100D9C0000BF0837BD4680BD9C00002040000020ED
:100DAC00000C01406766666600000020D34D62109F
:100DBC0004000020080000201F85EB5180B500AF17
:100DCC00484B1B68002B00F08B80474B1B68032B98
:100DDC007ED801A252F823F0F50D00082B0E000866
:100DEC006B0E0008A10E0008002204213F4800F001
:100DFC00C8FC0122E0213D4800F0C3FC3C4B1B68C1
:100E0C003C4A82FB03129210DB17D31A184600F0EF
:100E1C0075F8354B1B680133334A13605CE00022D4
:100E2C008021324800F0ADFC012264212F4800F0F3
:100E3C00A8FC2F4B1A682F4B83FB02139910D31766
:100E4C00C91A0B469B000B445B00D11A084600F0F4
:100E5C0055F8254B1B680133234A13603CE00022F4
:100E6C004021224800F08DFC0122A4211F4800F0F3
:100E7C0088FC214B1B681F4A82FB03129210DB1764
:100E8C00D31A184600F03AF8174B1B680133164A70
:100E9C00136021E000222021144800F072FC012292
:100EAC00C421124800F06DFC134B1A68114B83FBE4
:100EBC0002139910D317C91A0B469B000B445B0005
:100ECC00D11A084600F01AF8074B00221A6003E00A
:100EDC00054B00221A6000BF00211920FFF7A0FA71
:100EEC0000BF80BD9C00002040000020000C014091
:100EFC00BC00002067666666C000002080B582B02A
:100F0C0000AF78607B68092B01DD00237B607B6878
:100F1C00012B02D07B68042B01D1012300E00023BC
:100F2C00DBB21A464FF480413D4800F02AFC7B6846
:100F3C00052B02D07B68062B01D1012300E0002396
:100F4C00DBB21A464FF48051364800F01AFC7B682D
:100F5C00022B0CBF01230023DBB21A464FF40061B5
:100F6C00304800F00EFC7B68012B05D07B68042B0D
:100F7C0002D07B68072B01D1012300E00023DBB2F8
:100F8C001A464FF48061274800F0FBFB7B68012B6D
:100F9C000ED07B68042B0BD07B68032B08D07B68AE
:100FAC00052B05D07B68072B02D07B68092B01D160
:100FBC00012300E00023DBB21A464FF400711948FC
:100FCC0000F0DFFB7B68012B08D07B68022B05D07F
:100FDC007B68032B02D07B68072B01D1012300E037
:100FEC000023DBB21A464FF400510D4800F0C9FB48
:100FFC007B68002B05D07B68012B02D07B68072B0C
:10100C0001D1012300E00023DBB21A464FF400416A
:10101C00034800F0B6FB00BF0837BD4680BD00BFDB
:10102C00000C01400008014080B400AF72B600BF54
:10103C00FEE7000080B483B000AF0E4B9B690D4AF5
:10104C0043F0010393610B4B9B6903F001037B603D
:10105C007B68084BDB69074A43F08053D361054B2F
:10106C00DB6903F080533B603B6800BF0C37BD4627
:10107C0080BC70470010024080B584B000AF78602F
:10108C007B681B68B3F1804F13D10C4BDB690B4AA7
:10109C0043F00103D361094BDB6903F00103FB60EF
:1010AC00FB68002200211C2000F0A1F91C2000F09C
:1010BC00BAF900BF1037BD4680BD00BF001002401A
:1010CC0080B400AFFEE780B400AFFEE780B400AFA1
:1010DC00FEE780B400AFFEE780B400AFFEE780B45B
:1010EC0000AF00BFBD4680BC704780B400AF00BFEE
:1010FC00BD4680BC704780B400AF00BFBD4680BC0D
:10110C00704780B500AF00F07FF800BF80BD0000D5
:10111C0080B500AF024800F0E9FF00BF80BD00BF02
:10112C00C400002080B400AF00BFBD4680BC704737
:10113C000C480D490D4A002302E0D458C450043326
:10114C00C4188C42F9D30A4A0A4C002301E01360FC
:10115C000432A242FBD3FFF7E5FF01F00FFBFFF7D0
:10116C00A3F9704700000020200000202028000870
:10117C002000002010010020FEE7000080B500AF29
:10118C00084B1B68074A43F010031360032000F060
:10119C0023F90F2000F008F8FFF74CFF0023184646
:1011AC0080BD00BF0020024080B582B000AF7860E7
:1011BC00124B1A68124B1B7819464FF47A73B3FB17
:1011CC00F1F3B2FBF3F3184600F03BF90346002BA6
:1011DC0001D001230EE07B680F2B0AD8002279681E
:1011EC004FF0FF3000F003F9064A7B6813600023D0
:1011FC0000E0012318460837BD4680BD14000020CE
:10120C001C0000201800002080B400AF054B1B7898
:10121C001A46054B1B681344034A136000BFBD46B6
:10122C0080BC70471C0000200C01002080B400AF73
:10123C00024B1B681846BD4680BC70470C01002051
:10124C0080B485B000AF78607B6803F00703FB6067
:10125C000C4BDB68BB60BA684FF6FF031340BB60F6
:10126C00FB681A02BB68134343F0BF6343F40033BB
:10127C00BB60044ABB68D36000BF1437BD4680BC5A
:10128C00704700BF00ED00E080B400AF044BDB689A
:10129C001B0A03F007031846BD4680BC704700BF0D
:1012AC0000ED00E080B483B000AF0346FB7197F90A
:1012BC000730002B0BDBFB7903F01F02064997F973
:1012CC0007305B09012000FA02F241F8232000BF2D
:1012DC000C37BD4680BC704700E100E080B483B0A1
:1012EC0000AF03463960FB7197F90730002B0ADB1E
:1012FC003B68DAB20C4997F907301201D2B20B44B1
:10130C0083F800230AE03B68DAB20849FB7903F062
:10131C000F03043B1201D2B20B441A7600BF0C37F8
:10132C00BD4680BC704700BF00E100E000ED00E06E
:10133C0080B489B000AFF860B9607A60FB6803F0E4
:10134C000703FB61FB69C3F10703042B28BF0423CC
:10135C00BB61FB690433062B02D9FB69033B00E03C
:10136C0000237B614FF0FF32BB6902FA03F3DA43CF
:10137C00BB681A407B699A404FF0FF317B6901FAD8
:10138C0003F3D9437B680B40134318462437BD46FF
:10139C0080BC704780B582B000AF78607B68013B41
:1013AC00B3F1807F01D301230FE00A4A7B68013B34
:1013BC0053600F214FF0FF30FFF790FF054B0022D9
:1013CC009A60044B07221A60002318460837BD4662
:1013DC0080BD00BF10E000E080B582B000AF786047
:1013EC007868FFF72DFF00BF0837BD4680BD80B57C
:1013FC0086B000AF0346B9607A60FB7300237B6153
:10140C00FFF742FF78617A68B9687869FFF790FF57
:10141C00024697F90F3011461846FFF75FFF00BFE1
:10142C001837BD4680BD80B582B000AF0346FB7156
:10143C0097F907301846FFF735FF00BF0837BD4650
:10144C0080BD80B582B000AF78607868FFF7A2FFEE
:10145C00034618460837BD4680BD000080B48BB0EB
:10146C0000AF7860396000237B6200233B6261E14E
:10147C0001227B6A02FA03F3FB613B681B68FA6981
:10148C001340BB61BA69FB699A4240F050813B68DA
:10149C005B68974A93425ED0954A934275D8954AB9
:1014AC00934258D0934A93426FD8934A934252D066
:1014BC00914A934269D8914A93424CD08F4A9342B5
:1014CC0063D88F4A934246D08D4A93425DD8122BF3
:1014DC002AD8122B59D801A252F823F06315000810
:1014EC003D1500084F1500089115000897150008C8
:1014FC009715000897150008971500089715000810
:10150C0097150008971500089715000897150008FF
:10151C0097150008971500089715000897150008EF
:10152C004515000859150008764A934213D02CE053
:10153C003B68DB683B6229E03B68DB6804333B6259
:10154C0024E03B68DB6808333B621FE03B68DB68E8
:10155C000C333B621AE03B689B68002B02D10423DE
:10156C003B6213E03B689B68012B05D108233B626F
:10157C007B68FA691A6109E008233B627B68FA69A7
:10158C005A6103E000233B6200E000BFBB69FF2B04
:10159C0001D87B6801E07B6804337B61BB69FF2B5E
:1015AC0002D87B6A9B0002E07B6A083B9B003B6194
:1015BC007B691A680F213B6901FA03F3DB431A407C
:1015CC00396A3B6901FA03F31A437B691A603B6879
:1015DC005B6803F08053002B00F0A9804A4B9B6999
:1015EC00494A43F001039361474B9B6903F00103A4
:1015FC00BB60BB68454A7B6A9B08023352F82330B8
:10160C00FB607B6A03F003039B000F2202FA03F3D7
:10161C00DB43FA681340FB607B683D4A93420DD074
:10162C007B683C4A934207D07B683B4A934201D18A
:10163C00022304E0032302E0012300E000237A6A82
:10164C0002F0030292009340FA681343FB602F49A7
:10165C007B6A9B080233FA6841F823203B685B687D
:10166C0003F48033002B06D02C4B1A682B49BB6932
:10167C0013430B6006E0294B1A68BB69DB4327490F
:10168C0013400B603B685B6803F40033002B06D0FF
:10169C00224B5A682149BB6913434B6006E01F4B30
:1016AC005A68BB69DB431D4913404B603B685B6860
:1016BC0003F48013002B06D0184B9A681749BB69AA
:1016CC0013438B6006E0154B9A68BB69DB431349E7
:1016DC0013408B603B685B6803F40013002B1FD036
:1016EC000E4BDA680D49BB691343CB601FE000BF9A
:1016FC0000003210000031100000221000002110F8
:10170C0000001210000011100010024000000140F7
:10171C0000080140000C0140001001400004014091
:10172C000B4BDA68BB69DB4309491340CB607B6A1E
:10173C0001337B623B681A687B6A22FA03F3002B45
:10174C007FF496AE00BF00BF2C37BD4680BC7047FF
:10175C000004014080B485B000AF78600B467B80FC
:10176C007B689A687B881340002B02D00123FB73A3
:10177C0001E00023FB73FB7B18461437BD4680BC8D
:10178C00704780B483B000AF78600B467B80134603
:10179C007B707B78002B03D07A887B681A6103E01E
:1017AC007B881A047B681A6100BF0C37BD4680BC6D
:1017BC00704780B485B000AF78600B467B807B6847
:1017CC00DB68FB607A88FB6813401A04FB68D9431A
:1017DC007B880B401A437B681A6100BF1437BD46E7
:1017EC0080BC704780B586B000AF78607B68002BFA
:1017FC0001D1012372E27B681B6803F00103002B0B
:10180C0000F08780924B5B6803F00C03042B0CD028
:10181C008F4B5B6803F00C03082B12D18C4B5B686D
:10182C0003F48033B3F5803F0BD1894B1B6803F471
:10183C000033002B6CD07B685B68002B68D10123D4
:10184C004CE27B685B68B3F5803F06D1804B1B682C
:10185C007F4A43F4803313602EE07B685B68002B77
:10186C000CD17B4B1B687A4A23F480331360784B82
:10187C001B68774A23F4802313601DE07B685B6848
:10188C00B3F5A02F0CD1724B1B68714A43F4802323
:10189C0013606F4B1B686E4A43F4803313600BE08C
:1018AC006B4B1B686A4A23F480331360684B1B68CC
:1018BC00674A23F4802313607B685B68002B13D08A
:1018CC00FFF7B4FC386108E0FFF7B0FC02463B6957
:1018DC00D31A642B01D9032300E25D4B1B6803F47C
:1018EC000033002BF0D014E0FFF7A0FC386108E0C7
:1018FC00FFF79CFC02463B69D31A642B01D90323E6
:10190C00ECE1534B1B6803F40033002BF0D100E0E7
:10191C0000BF7B681B6803F00203002B63D04C4BA9
:10192C005B6803F00C03002B0BD0494B5B6803F096
:10193C000C03082B1CD1464B5B6803F48033002B43
:10194C0016D1434B1B6803F00203002B05D07B68B8
:10195C001B69012B01D00123C0E13D4B1B6823F017
:10196C00F8027B685B69DB00394913430B603AE092
:10197C007B681B69002B20D0364B01221A60FFF7C5
:10198C0055FC386108E0FFF751FC02463B69D31A5D
:10199C00022B01D90323A1E12D4B1B6803F0020399
:1019AC00002BF0D02A4B1B6823F0F8027B685B6994
:1019BC00DB00274913430B6015E0264B00221A600D
:1019CC00FFF734FC386108E0FFF730FC02463B6956
:1019DC00D31A022B01D9032380E11D4B1B6803F0A2
:1019EC000203002BF0D17B681B6803F00803002B6B
:1019FC003AD07B689B69002B19D0174B01221A60D7
:101A0C00FFF714FC386108E0FFF710FC02463B6955
:101A1C00D31A022B01D9032360E10D4B5B6A03F04F
:101A2C000203002BF0D0012000F0A6FA1CE00A4BB8
:101A3C0000221A60FFF7FAFB38610FE0FFF7F6FBA4
:101A4C0002463B69D31A022B08D9032346E100BF97
:101A5C00001002400000424280044242924B5B6AFA
:101A6C0003F00203002BE9D17B681B6803F004032D
:101A7C00002B00F0A6800023FB758B4BDB6903F079
:101A8C008053002B0DD1884BDB69874A43F0805380
:101A9C00D361854BDB6903F08053BB60BB680123CA
:101AAC00FB75824B1B6803F48073002B18D17F4BA2
:101ABC001B687E4A43F480731360FFF7B7FB3861F1
:101ACC0008E0FFF7B3FB02463B69D31A642B01D93C
:101ADC00032303E1754B1B6803F48073002BF0D0D8
:101AEC007B68DB68012B06D16F4B1B6A6E4A43F097
:101AFC00010313622DE07B68DB68002B0CD16A4B71
:101B0C001B6A694A23F001031362674B1B6A664A1E
:101B1C0023F0040313621CE07B68DB68052B0CD1FB
:101B2C00614B1B6A604A43F0040313625E4B1B6AF1
:101B3C005D4A43F0010313620BE05B4B1B6A5A4A8C
:101B4C0023F001031362584B1B6A574A23F004031A
:101B5C0013627B68DB68002B15D0FFF767FB3861DD
:101B6C000AE0FFF763FB02463B69D31A41F2883265
:101B7C00934201D90323B1E04B4B1B6A03F00203E0
:101B8C00002BEED014E0FFF751FB38610AE0FFF7B1
:101B9C004DFB02463B69D31A41F28832934201D97C
:101BAC0003239BE0404B1B6A03F00203002BEED196
:101BBC00FB7D012B05D13C4BDB693B4A23F0805369
:101BCC00D3617B68DB69002B00F08780364B5B6848
:101BDC0003F00C03082B61D07B68DB69022B46D128
:101BEC00334B00221A60FFF721FB386108E0FFF746
:101BFC001DFB02463B69D31A022B01D903236DE06E
:101C0C00294B1B6803F00073002BF0D17B681B6A17
:101C1C00B3F5803F08D1244B5B6823F400327B681A
:101C2C009B68214913434B601F4B5B6823F4741270
:101C3C007B68196A7B685B6A0B431B4913434B60D7
:101C4C001B4B01221A60FFF7F1FA386108E0FFF72D
:101C5C00EDFA02463B69D31A022B01D903233DE06E
:101C6C00114B1B6803F00073002BF0D035E0104BC8
:101C7C0000221A60FFF7DAFA386108E0FFF7D6FAAB
:101C8C0002463B69D31A022B01D9032326E0064BEB
:101C9C001B6803F00073002BF0D11EE07B68DB693E
:101CAC00012B07D1012319E0001002400070004005
:101CBC00600042420B4B5B68FB60FB6803F48032B4
:101CCC007B681B6A9A4206D1FB6803F470127B682E
:101CDC005B6A9A4201D0012300E0002318461837B2
:101CEC00BD4680BD0010024080B584B000AF786066
:101CFC0039607B68002B01D10123D0E06A4B1B6853
:101D0C0003F007033A689A4210D9674B1B6823F01B
:101D1C00070265493B6813430B60634B1B6803F078
:101D2C0007033A689A4201D00123B8E07B681B682C
:101D3C0003F00203002B20D07B681B6803F0040324
:101D4C00002B05D0594B5B68584A43F4E063536051
:101D5C007B681B6803F00803002B05D0534B5B68B2
:101D6C00524A43F460535360504B5B6823F0F002CB
:101D7C007B689B684D4913434B607B681B6803F081
:101D8C000103002B40D07B685B68012B07D1474BCC
:101D9C001B6803F40033002B15D101237FE07B6813
:101DAC005B68022B07D1414B1B6803F00073002BBF
:101DBC0009D1012373E03D4B1B6803F00203002B98
:101DCC0001D101236BE0394B5B6823F003027B6884
:101DDC005B68364913434B60FFF728FAF8600AE05A
:101DEC00FFF724FA0246FB68D31A41F28832934279
:101DFC0001D9032353E02D4B5B6803F00C027B6885
:101E0C005B689B009A42EBD1274B1B6803F00703DE
:101E1C003A689A4210D2244B1B6823F007022249DD
:101E2C003B6813430B60204B1B6803F007033A68B5
:101E3C009A4201D0012332E07B681B6803F0040353
:101E4C00002B08D0194B5B6823F4E0627B68DB68DD
:101E5C00164913434B607B681B6803F00803002B87
:101E6C0009D0124B5B6823F460527B681B69DB0062
:101E7C000E4913434B6000F021F802460B4B5B6894
:101E8C001B0903F00F030A49CB5C22FA03F3094A3E
:101E9C001360094B1B681846FFF786F90023184698
:101EAC001037BD4680BD00BF00200240001002402C
:101EBC0008280008140000201800002090B48AB0F4
:101ECC0000AF294B3C1D0FCB84E80F0040F20123DF
:101EDC003B800023FB610023BB6100237B6200235A
:101EEC007B6100233B62214B5B68FB61FB6903F068
:101EFC000C03042B02D0082B03D02BE01C4B3B62B1
:101F0C002BE0FB699B0C03F00F0328333B4413F8C5
:101F1C00243C7B61FB6903F48033002B12D0134B00
:101F2C005B685B0C03F0010328333B4413F8283C3B
:101F3C00BB617B690E4A03FB02F2BB69B2FBF3F394
:101F4C007B6204E07B690B4A02FB03F37B627B6AD6
:101F5C003B6202E0064B3B6200BF3B6A18462837E7
:101F6C00BD4690BC704700BFF82700080010024027
:101F7C0000127A0000093D0080B485B000AF786093
:101F8C000A4B1B680A4AA2FB03235B0A7A6802FB12
:101F9C0003F3FB6000BFFB685A1EFA60002BF9D1FB
:101FAC0000BF00BF1437BD4680BC70471400002032
:101FBC00D34D621080B582B000AF78607B68002B87
:101FCC0001D1012341E07B6893F83D30DBB2002B5B
:101FDC0006D17B68002283F83C207868FFF74CF828
:101FEC007B68022283F83D207B681A687B68043387
:101FFC001946104600F06AFA7B68012283F84620E5
:10200C007B68012283F83E207B68012283F83F2005
:10201C007B68012283F840207B68012283F84120F1
:10202C007B68012283F842207B68012283F84320DD
:10203C007B68012283F844207B68012283F84520C9
:10204C007B68012283F83D20002318460837BD46E3
:10205C0080BD000080B485B000AF78607B6893F8D9
:10206C003D30DBB2012B01D0012335E07B6802222D
:10207C0083F83D207B681B68DA687B681B6842F03C
:10208C000102DA607B681B68164A934209D07B68B0
:10209C001B68B3F1804F04D07B681B68124A9342D3
:1020AC0011D17B681B689B6803F00703FB60FB681E
:1020BC00062B10D07B681B681A687B681B6842F083
:1020CC0001021A6007E07B681B681A687B681B6852
:1020DC0042F001021A60002318461437BD4680BC3A
:1020EC00704700BF002C01400004004080B582B056
:1020FC0000AF78607B681B681B6903F00203022B3E
:10210C0022D17B681B68DB6803F00203022B1BD116
:10211C007B681B686FF002021A617B6801221A77D8
:10212C007B681B689B6903F00303002B03D0786862
:10213C0000F0B1F905E0786800F0A4F9786800F0D7
:10214C00B3F97B6800221A777B681B681B6903F064
:10215C000403042B22D17B681B68DB6803F00403A7
:10216C00042B1BD17B681B686FF004021A617B681F
:10217C0002221A777B681B689B6903F44073002B5F
:10218C0003D0786800F087F905E0786800F07AF9F8
:10219C00786800F089F97B6800221A777B681B68E5
:1021AC001B6903F00803082B22D17B681B68DB68D2
:1021BC0003F00803082B1BD17B681B686FF0080227
:1021CC001A617B6804221A777B681B68DB6903F051
:1021DC000303002B03D0786800F05DF905E0786804
:1021EC0000F050F9786800F05FF97B6800221A77EC
:1021FC007B681B681B6903F01003102B22D17B68D2
:10220C001B68DB6803F01003102B1BD17B681B6869
:10221C006FF010021A617B6808221A777B681B68C2
:10222C00DB6903F44073002B03D0786800F033F9BA
:10223C0005E0786800F026F9786800F035F97B68DD
:10224C0000221A777B681B681B6903F00103012BC2
:10225C000ED17B681B68DB6803F00103012B07D1EF
:10226C007B681B686FF001021A617868FEF76AFAE6
:10227C007B681B681B6903F08003802B0ED17B6885
:10228C001B68DB6803F08003802B07D17B681B681D
:10229C006FF080021A61786800F067FA7B681B683F
:1022AC001B6903F04003402B0ED17B681B68DB6875
:1022BC0003F04003402B07D17B681B686FF0400292
:1022CC001A61786800F0F9F87B681B681B6903F0E9
:1022DC002003202B0ED17B681B68DB6803F02003E6
:1022EC00202B07D17B681B686FF020021A6178687D
:1022FC0000F032FA00BF0837BD4680BD80B584B00F
:10230C0000AF786039607B6893F83C30012B01D1C9
:10231C000223B3E07B68012283F83C207B68022215
:10232C0083F83D207B681B689B68FB60FB6823F08F
:10233C007703FB60FB6823F47F43FB607B681B68BF
:10234C00FA689A603B681B68B3F5005F3ED0B3F542
:10235C00005F00F28780B3F5805F00F08580B3F5F5
:10236C00805F7FD8702B1AD0702B7BD8602B50D00D
:10237C00602B77D8502B3CD0502B73D8402B58D097
:10238C00402B6FD8302B64D0302B6BD8202B60D0E7
:10239C00202B67D8002B5CD0102B5AD062E07B68C6
:1023AC0018683B6899683B685A683B68DB6800F0C2
:1023BC005CF97B681B689B68FB60FB6843F07703E8
:1023CC00FB607B681B68FA689A604EE07B68186853
:1023DC003B6899683B685A683B68DB6800F045F9D4
:1023EC007B681B689A687B681B6842F480429A6021
:1023FC003BE07B6818683B6859683B68DB681A46A9
:10240C0000F0BCF87B681B685021184600F013F9EB
:10241C002BE07B6818683B6859683B68DB681A4698
:10242C0000F0DAF87B681B686021184600F003F9AD
:10243C001BE07B6818683B6859683B68DB681A4688
:10244C0000F09CF87B681B684021184600F0F3F8FC
:10245C000BE07B681A683B681B681946104600F055
:10246C00EAF802E000BF00E000BF7B68012283F8BD
:10247C003D207B68002283F83C200023184610374F
:10248C00BD4680BD80B483B000AF786000BF0C3710
:10249C00BD4680BC704780B483B000AF786000BF8D
:1024AC000C37BD4680BC704780B483B000AF7860F9
:1024BC0000BF0C37BD4680BC704780B483B000AF02
:1024CC00786000BF0C37BD4680BC704780B485B0C7
:1024DC0000AF786039607B681B68FB607B68254ABD
:1024EC00934207D07B68B3F1804F03D07B68224ABC
:1024FC00934208D1FB6823F07003FB603B685B6878
:10250C00FA681343FB607B681A4A934207D07B68D6
:10251C00B3F1804F03D07B68174A934208D1FB6814
:10252C0023F44073FB603B68DB68FA681343FB6081
:10253C00FB6823F080023B685B691343FB607B689C
:10254C00FA681A603B689A687B68DA623B681A68BA
:10255C007B689A627B68074A934203D13B681A698D
:10256C007B681A637B6801225A6100BF1437BD4631
:10257C0080BC7047002C01400004004080B487B040
:10258C0000AFF860B9607A60FB681B6A7B61FB681E
:10259C001B6A23F00102FB681A62FB689B693B61B2
:1025AC003B6923F0F0033B617B681B013A691343E1
:1025BC003B617B6923F00A037B617A69BB68134337
:1025CC007B61FB683A699A61FB687A691A6200BFA1
:1025DC001C37BD4680BC704780B487B000AFF86034
:1025EC00B9607A60FB681B6A23F01002FB681A6200
:1025FC00FB689B697B61FB681B6A3B617B6923F40D
:10260C0070437B617B681B037A6913437B613B6975
:10261C0023F0A0033B61BB681B013A6913433B6188
:10262C00FB687A699A61FB683A691A6200BF1C37C9
:10263C00BD4680BC704780B485B000AF786039600F
:10264C007B689B68FB60FB6823F07003FB603A6857
:10265C00FB68134343F00703FB607B68FA689A60DE
:10266C0000BF1437BD4680BC704780B487B000AF44
:10267C00F860B9607A603B60FB689B687B617B6942
:10268C0023F47F437B613B681A027B681A43BB6867
:10269C0013437A6913437B61FB687A699A6000BFC4
:1026AC001C37BD4680BC704780B485B000AF7860E5
:1026BC0039607B6893F83C30012B01D1022341E057
:1026CC007B68012283F83C207B68022283F83D2042
:1026DC007B681B685B68FB607B681B689B68BB60E6
:1026EC00FB6823F07003FB603B681B68FA681343BC
:1026FC00FB607B681B68FA685A607B681B68144A2D
:10270C00934209D07B681B68B3F1804F04D07B687F
:10271C001B68104A93420CD1BB6823F08003BB604A
:10272C003B685B68BA681343BB607B681B68BA681C
:10273C009A607B68012283F83D207B68002283F835
:10274C003C20002318461437BD4680BC704700BFA0
:10275C00002C01400004004080B483B000AF7860CE
:10276C0000BF0C37BD4680BC704780B483B000AF4F
:10277C00786000BF0C37BD4680BC704770B5002632
:10278C000C4D0D4C641BA410A64209D100F022F88C
:10279C0000260A4D0A4C641BA410A64205D170BD3C
:1027AC0055F8043B98470136EEE755F8043B98473B
:1027BC000136F2E718280008182800081828000825
:1027CC001C28000803460244934200D1704703F8CA
:1027DC00011BF9E7F8B500BFF8BC08BC9E46704772
:0C27EC00F8B500BFF8BC08BC9E46704762
:1027F80002030405060708090A0B0C0D0E0F10103A
:102808000000000000000000010203040607080998
:042818003101000882
:04281C000D010008A2
:10282000E80300002C010000BC02000002000400CC
:10283000080000000024F400100000000100000067
:040000050800113DA1
:00000001FF
